{
  "contractName": "Lottery",
  "abi": [
    {
      "inputs": [],
      "stateMutability": "nonpayable",
      "type": "constructor"
    },
    {
      "anonymous": false,
      "inputs": [
        {
          "indexed": false,
          "internalType": "address",
          "name": "_address",
          "type": "address"
        }
      ],
      "name": "PlayerAdded",
      "type": "event"
    },
    {
      "anonymous": false,
      "inputs": [
        {
          "indexed": false,
          "internalType": "address",
          "name": "_address",
          "type": "address"
        },
        {
          "indexed": false,
          "internalType": "uint256",
          "name": "_ethWon",
          "type": "uint256"
        }
      ],
      "name": "WinnerPicked",
      "type": "event"
    },
    {
      "inputs": [],
      "name": "manager",
      "outputs": [
        {
          "internalType": "address payable",
          "name": "",
          "type": "address"
        }
      ],
      "stateMutability": "view",
      "type": "function",
      "constant": true
    },
    {
      "inputs": [
        {
          "internalType": "uint256",
          "name": "",
          "type": "uint256"
        }
      ],
      "name": "players",
      "outputs": [
        {
          "internalType": "address payable",
          "name": "",
          "type": "address"
        }
      ],
      "stateMutability": "view",
      "type": "function",
      "constant": true
    },
    {
      "inputs": [],
      "name": "previousWinner",
      "outputs": [
        {
          "internalType": "address",
          "name": "",
          "type": "address"
        }
      ],
      "stateMutability": "view",
      "type": "function",
      "constant": true
    },
    {
      "inputs": [],
      "name": "isOwner",
      "outputs": [
        {
          "internalType": "bool",
          "name": "",
          "type": "bool"
        }
      ],
      "stateMutability": "view",
      "type": "function",
      "constant": true
    },
    {
      "inputs": [],
      "name": "getPlayers",
      "outputs": [
        {
          "internalType": "address payable[]",
          "name": "",
          "type": "address[]"
        }
      ],
      "stateMutability": "view",
      "type": "function",
      "constant": true
    },
    {
      "inputs": [],
      "name": "enter",
      "outputs": [],
      "stateMutability": "payable",
      "type": "function",
      "payable": true
    },
    {
      "inputs": [],
      "name": "pickWinner",
      "outputs": [],
      "stateMutability": "nonpayable",
      "type": "function"
    },
    {
      "inputs": [],
      "name": "transfer",
      "outputs": [],
      "stateMutability": "nonpayable",
      "type": "function"
    }
  ],
  "bytecode": "0x608060405234801561001057600080fd5b50336000806101000a81548173ffffffffffffffffffffffffffffffffffffffff021916908373ffffffffffffffffffffffffffffffffffffffff160217905550610bfd806100606000396000f3fe60806040526004361061007b5760003560e01c80638b5b9ccc1161004e5780638b5b9ccc146101045780638f32d59b1461012f578063e97dcb621461015a578063f71d96cb146101645761007b565b8063481c6a75146100805780635c6059ee146100ab5780635d495aea146100d65780638a4068dd146100ed575b600080fd5b34801561008c57600080fd5b506100956101a1565b6040516100a291906107e6565b60405180910390f35b3480156100b757600080fd5b506100c06101c5565b6040516100cd9190610822565b60405180910390f35b3480156100e257600080fd5b506100eb6101eb565b005b3480156100f957600080fd5b506101026103ec565b005b34801561011057600080fd5b506101196104c6565b60405161012691906108fb565b60405180910390f35b34801561013b57600080fd5b50610144610554565b6040516101519190610938565b60405180910390f35b6101626105ab565b005b34801561017057600080fd5b5061018b6004803603810190610186919061098e565b61066c565b60405161019891906107e6565b60405180910390f35b60008054906101000a900473ffffffffffffffffffffffffffffffffffffffff1681565b600260009054906101000a900473ffffffffffffffffffffffffffffffffffffffff1681565b6101f3610554565b6101fc57600080fd5b60006102066106ab565b90506001818154811061021c5761021b6109bb565b5b9060005260206000200160009054906101000a900473ffffffffffffffffffffffffffffffffffffffff16600260006101000a81548173ffffffffffffffffffffffffffffffffffffffff021916908373ffffffffffffffffffffffffffffffffffffffff1602179055506000479050600182815481106102a05761029f6109bb565b5b9060005260206000200160009054906101000a900473ffffffffffffffffffffffffffffffffffffffff1673ffffffffffffffffffffffffffffffffffffffff166108fc479081150290604051600060405180830381858888f19350505050158015610310573d6000803e3d6000fd5b507f64791dbae5677392ba76761a5273633cec8f1d9d8cfe808da7bac6ef16a880be60018381548110610346576103456109bb565b5b9060005260206000200160009054906101000a900473ffffffffffffffffffffffffffffffffffffffff1682604051610380929190610a58565b60405180910390a1600067ffffffffffffffff8111156103a3576103a2610a81565b5b6040519080825280602002602001820160405280156103d15781602001602082028036833780820191505090505b50600190805190602001906103e79291906106fe565b505050565b6103f4610554565b6103fd57600080fd5b60008054906101000a900473ffffffffffffffffffffffffffffffffffffffff1673ffffffffffffffffffffffffffffffffffffffff166108fc479081150290604051600060405180830381858888f19350505050158015610463573d6000803e3d6000fd5b50600067ffffffffffffffff81111561047f5761047e610a81565b5b6040519080825280602002602001820160405280156104ad5781602001602082028036833780820191505090505b50600190805190602001906104c39291906106fe565b50565b6060600180548060200260200160405190810160405280929190818152602001828054801561054a57602002820191906000526020600020905b8160009054906101000a900473ffffffffffffffffffffffffffffffffffffffff1673ffffffffffffffffffffffffffffffffffffffff1681526020019060010190808311610500575b5050505050905090565b60008060009054906101000a900473ffffffffffffffffffffffffffffffffffffffff1673ffffffffffffffffffffffffffffffffffffffff163373ffffffffffffffffffffffffffffffffffffffff1614905090565b6105b3610554565b156105bd57600080fd5b662386f26fc1000034116105d057600080fd5b6001339080600181540180825580915050600190039060005260206000200160009091909190916101000a81548173ffffffffffffffffffffffffffffffffffffffff021916908373ffffffffffffffffffffffffffffffffffffffff1602179055507ff2ae205522024c14e5a7a26ba6d1fb1252dc8e161b5abc79ed5795fd3c5b9261336040516106629190610822565b60405180910390a1565b6001818154811061067c57600080fd5b906000526020600020016000915054906101000a900473ffffffffffffffffffffffffffffffffffffffff1681565b600080600090506000600180549050423384446040516020016106d19493929190610b19565b6040516020818303038152906040528051906020012060001c6106f49190610b96565b9050809250505090565b828054828255906000526020600020908101928215610777579160200282015b828111156107765782518260006101000a81548173ffffffffffffffffffffffffffffffffffffffff021916908373ffffffffffffffffffffffffffffffffffffffff1602179055509160200191906001019061071e565b5b5090506107849190610788565b5090565b5b808211156107a1576000816000905550600101610789565b5090565b600073ffffffffffffffffffffffffffffffffffffffff82169050919050565b60006107d0826107a5565b9050919050565b6107e0816107c5565b82525050565b60006020820190506107fb60008301846107d7565b92915050565b600061080c826107a5565b9050919050565b61081c81610801565b82525050565b60006020820190506108376000830184610813565b92915050565b600081519050919050565b600082825260208201905092915050565b6000819050602082019050919050565b610872816107c5565b82525050565b60006108848383610869565b60208301905092915050565b6000602082019050919050565b60006108a88261083d565b6108b28185610848565b93506108bd83610859565b8060005b838110156108ee5781516108d58882610878565b97506108e083610890565b9250506001810190506108c1565b5085935050505092915050565b60006020820190508181036000830152610915818461089d565b905092915050565b60008115159050919050565b6109328161091d565b82525050565b600060208201905061094d6000830184610929565b92915050565b600080fd5b6000819050919050565b61096b81610958565b811461097657600080fd5b50565b60008135905061098881610962565b92915050565b6000602082840312156109a4576109a3610953565b5b60006109b284828501610979565b91505092915050565b7f4e487b7100000000000000000000000000000000000000000000000000000000600052603260045260246000fd5b6000819050919050565b6000610a0f610a0a610a05846107a5565b6109ea565b6107a5565b9050919050565b6000610a21826109f4565b9050919050565b6000610a3382610a16565b9050919050565b610a4381610a28565b82525050565b610a5281610958565b82525050565b6000604082019050610a6d6000830185610a3a565b610a7a6020830184610a49565b9392505050565b7f4e487b7100000000000000000000000000000000000000000000000000000000600052604160045260246000fd5b6000819050919050565b610acb610ac682610958565b610ab0565b82525050565b60008160601b9050919050565b6000610ae982610ad1565b9050919050565b6000610afb82610ade565b9050919050565b610b13610b0e82610801565b610af0565b82525050565b6000610b258287610aba565b602082019150610b358286610b02565b601482019150610b458285610aba565b602082019150610b558284610aba565b60208201915081905095945050505050565b7f4e487b7100000000000000000000000000000000000000000000000000000000600052601260045260246000fd5b6000610ba182610958565b9150610bac83610958565b925082610bbc57610bbb610b67565b5b82820690509291505056fea26469706673582212208a918283429cb8203e1590457a3e1b000365323bf4c8de76c4c9fc22067179a564736f6c634300080b0033",
  "immutableReferences": {},
  "source": "// SPDX-License-Identifier: MIT\r\n \r\npragma solidity ^0.8.9;\r\n \r\ncontract Lottery {\r\n    address payable public manager;\r\n    address payable[] public players;\r\n    address public previousWinner;\r\n\r\n    // Events\r\n    event PlayerAdded(address _address);\r\n    event WinnerPicked(address _address, uint _ethWon);\r\n\r\n    // Only owner can call \r\n    modifier onlyOwner() {\r\n        require(isOwner());\r\n        _;\r\n    }\r\n    // Only owner cannot call\r\n    modifier notOwner() {\r\n        require(!isOwner());\r\n        _;\r\n    }\r\n    \r\n    function isOwner() public view returns (bool) {\r\n        return msg.sender == manager;\r\n    }\r\n\r\n    constructor() {\r\n        manager = payable(msg.sender);\r\n    }\r\n\r\n    function getPlayers() public view returns(address payable[] memory) {\r\n        return players;\r\n    }\r\n    \r\n    // we don't want the manager to participate\r\n    function enter() public notOwner payable {\r\n        // participants need to pay 1ether\r\n        require(msg.value > 0.01 ether);\r\n        // add the player \r\n        players.push(payable(msg.sender));\r\n        emit PlayerAdded(msg.sender);\r\n    }\r\n    // pick a winner from all the players and empties players array\r\n    function pickWinner() public onlyOwner {\r\n        uint index = random();\r\n        previousWinner = players[index];\r\n        uint balance = address(this).balance;\r\n\r\n        payable(players[index]).transfer(address(this).balance);\r\n        emit WinnerPicked(players[index], balance);\r\n        players = new address payable[](0);\r\n    }\r\n    // Generate a random number and returns it\r\n    function random() private view returns (uint){\r\n        uint randNonce=0;\r\n        uint randomNumberGenerated = uint(keccak256(abi.encodePacked(block.timestamp, msg.sender,randNonce,block.difficulty))) % players.length;\r\n        return randomNumberGenerated;\r\n    }\r\n    function transfer() public onlyOwner {\r\n        // send the owner of the contract all of the eth\r\n        manager.transfer(address(this).balance);\r\n        // reset the players array\r\n        players = new address payable[](0);\r\n    }\r\n    \r\n}",
  "sourcePath": "C:\\Users\\cyril.cartoux\\Desktop\\Dev\\Solidity\\Lottery-angular\\ethereum\\contracts\\lottery\\Lottery.sol",
  "compiler": {
    "name": "solc",
    "version": "0.8.11+commit.d7f03943.Emscripten.clang"
  },
  "schemaVersion": "3.4.4",
  "updatedAt": "2022-05-09T19:51:21.256Z",
  "networkType": "ethereum",
  "devdoc": {
    "kind": "dev",
    "methods": {},
    "version": 1
  },
  "userdoc": {
    "kind": "user",
    "methods": {},
    "version": 1
  }
}